:020000040800F2
:1000000000000824692A00080D24000813240008B1
:10001000192400081F2400082524000800000000FF
:100020000000000000000000000000002B24000879
:100030003924000800000000472400085524000867
:10004000B92A0008B92A0008B92A0008B92A000804
:10005000B92A0008B92A0008B92A0008B92A0008F4
:10006000B92A0008B92A0008B92A0008B92A0008E4
:10007000B92A0008B92A0008B92A0008B92A0008D4
:10008000B92A0008B92A0008B92A0008B92A0008C4
:10009000B92A0008B92A0008B92A0008B92A0008B4
:1000A000B92A0008B92A0008B92A0008B92A0008A4
:1000B000B92A0008B92A0008B92A0008B92A000894
:1000C000B92A0008B92A0008B92A0008B92A000884
:1000D000B92A0008B92A0008B92A000861240008D2
:1000E000B92A0008B92A000800000000B92A00084F
:1000F000B92A0008B92A0008B92A0008B92A000854
:10010000B92A0008B92A0008B92A0008B92A000843
:10011000B92A0008B92A0008B92A0008B92A000833
:10012000B92A0008B92A0008B92A0008B92A000823
:10013000B92A0008B92A0008B92A0008B92A000813
:1001400000000000000000000000000000000000AF
:10015000B92A0008B92A0008B92A0008B92A0008F3
:10016000B92A0008B92A0008B92A0008B92A0008E3
:10017000B92A0008B92A0008B92A000800000000BE
:10018000B92A0008B92A0008B92A0008B92A0008C3
:10019000B92A0008B92A0008B92A0008B92A0008B3
:1001A000B92A0008B92A0008B92A0008B92A0008A3
:1001B000B92A0008B92A0008B92A0008B92A000893
:1001C000B92A0008B92A0008B92A0008B92A000883
:1001D000B92A0008B92A0008B92A0008B92A000873
:1001E000B92A0008B92A0008B92A0008B92A000863
:1001F000B92A0008B92A0008B92A0008B92A000853
:10020000B92A0008B92A0008B92A0008B92A000842
:10021000B92A0008B92A0008B92A0008B92A000832
:10022000B92A0008B92A0008B92A0008000000000D
:10023000B92A0008B92A000800000000B92A0008FD
:10024000B92A0008B92A0008B92A0008B92A000802
:10025000B92A0008B92A0008B92A0008B92A0008F2
:10026000B92A0008B92A0008B92A0008B92A0008E2
:10027000B92A0008B92A0008B92A000800000000BD
:10028000B92A0008B92A0008B92A000800000000AD
:0802900000000000B92A00087B
:1002A00010B5054C237833B9044B13B10448AFF3B0
:1002B00000800123237010BD4401002400000000D1
:1002C0005CAC000808B5034B1BB103490348AFF30E
:1002D000008008BD00000000480100245CAC00085C
:1002E00010F8012B11F8013B012A28BF9A42F7D0E0
:1002F000D01A7047034613F8012B002AFBD1181AB5
:1003000001387047000000000000000000000000FD
:1003100001F0FF01102A2BDB10F0070F08D010F8B6
:10032000013B013A8B422DD010F0070F42B3F6D1BA
:10033000F0B441EA012141EA014122F007047FF0D3
:1003400000070023F0E80256083C85EA010586EA2A
:10035000010685FA47F5A3FA87F586FA47F6A5FA66
:1003600087F68EB9EED1F0BC01F0FF0102F0070272
:1003700032B110F8013B013A83EA010313B1F8D11D
:100380000020704701387047002D06BF35460338FE
:10039000073815F0010F07D1013015F4807F02BF37
:1003A000013015F4C03F0130F0BC0138704700BF88
:1003B00053B94AB9002908BF00281CBF4FF0FF31CC
:1003C0004FF0FF3000F074B9ADF1080C6DE904CEC8
:1003D00000F006F8DDF804E0DDE9022304B0704720
:1003E0002DE9F047089D04468E46002B4DD18A42E8
:1003F000944669D9B2FA82F252B101FA02F3C2F11B
:10040000200120FA01F10CFA02FC41EA030E9440AB
:100410004FEA1C48210CBEFBF8F61FFA8CF708FBCC
:1004200016E341EA034306FB07F199420AD91CEBA4
:10043000030306F1FF3080F01F81994240F21C81D6
:10044000023E63445B1AA4B2B3FBF8F008FB10331E
:1004500044EA034400FB07F7A7420AD91CEB040453
:1004600000F1FF3380F00A81A74240F20781644423
:10047000023840EA0640E41B00261DB1D4400023A8
:10048000C5E900433146BDE8F0878B4209D9002D0C
:1004900000F0EF800026C5E9000130463146BDE896
:1004A000F087B3FA83F6002E4AD18B4202D3824200
:1004B00000F2F980841A61EB030301209E46002DAF
:1004C000E0D0C5E9004EDDE702B9FFDEB2FA82F204
:1004D000002A40F09280A1EB0C014FEA1C471FFA62
:1004E0008CFE0126200CB1FBF7F307FB131140EA49
:1004F00001410EFB03F0884208D91CEB010103F116
:10050000FF3802D2884200F2CB804346091AA4B2D7
:10051000B1FBF7F007FB101144EA01440EFB00FEAB
:10052000A64508D91CEB040400F1FF3102D2A64510
:1005300000F2BB800846A4EB0E0440EA03409CE7AF
:10054000C6F12007B34022FA07FC4CEA030C20FA5C
:1005500007F401FA06F31C43F9404FEA1C4900FA7C
:1005600006F3B1FBF9F8200C1FFA8CFE09FB1811F9
:1005700040EA014108FB0EF0884202FA06F20BD96C
:100580001CEB010108F1FF3A80F08880884240F2BC
:100590008580A8F102086144091AA4B2B1FBF9F000
:1005A00009FB101144EA014100FB0EFE8E4508D9FB
:1005B0001CEB010100F1FF346CD28E456AD9023880
:1005C000614440EA0840A0FB0294A1EB0E01A14265
:1005D000C846A64656D353D05DB1B3EB080261EBD3
:1005E0000E0101FA07F722FA06F3F1401F43C5E9AD
:1005F000007100263146BDE8F087C2F12003D840E3
:100600000CFA02FC21FA03F3914001434FEA1C4724
:100610001FFA8CFEB3FBF7F007FB10360B0C43EA16
:10062000064300FB0EF69E4204FA02F408D91CEBC6
:10063000030300F1FF382FD29E422DD902386344C4
:100640009B1B89B2B3FBF7F607FB163341EA034164
:1006500006FB0EF38B4208D91CEB010106F1FF38B3
:1006600016D28B4214D9023E6144C91A46EA0046AA
:1006700038E72E46284605E70646E3E61846F8E63C
:100680004B45A9D2B9EB020864EB0C0E0138A3E785
:100690004646EAE7204694E74046D1E7D0467BE766
:1006A000023B614432E7304609E76444023842E7DE
:1006B000704700BF80B582B000AF78600F4B1B68F9
:1006C0000F4A11780F4AD1540F4B1B6801330E4A61
:1006D00013600A4B1B680133084A1360074B1B6801
:1006E0000E2B02DD054B00221A6001220449074847
:1006F00006F0B8FF00BF0837BD4680BDEC070024F8
:10070000E807002400000024F00700244802002429
:1007100080B500AF02F0D2F900F02EF800F076F9C3
:1007200000F0AAF800F0F4F800F03EF901220E49BA
:100730000E4806F097FF01224FF480410C4803F069
:10074000DBFE0C4B1B68002B06DD0A4B1B68013BD4
:10075000084A136001F04CFF044802F06FF90348A7
:1007600000F0DCFAE7E700BFE807002448020024B5
:1007700000040258F007002480B59CB000AF07F1D8
:1007800024034C220021184609F0EAFD3B1D2022DB
:100790000021184609F0E4FD022004F029F80023A6
:1007A0003B60334BDB6A324A23F00103D362304BA8
:1007B000DB6A03F001033B602E4B9B6923F440434B
:1007C0002C4A43F4004393612A4B9B6903F4404352
:1007D0003B603B6800BF274B9B6903F40053B3F5B4
:1007E000005FF8D103237B624FF4A023BB62012397
:1007F0003B6340237B630223BB640223FB6401232E
:100800003B6518237B650223BB650423FB6502233C
:100810003B660C237B660023BB660023FB6607F167
:100820002403184604F02EF80346002B01D000F0F4
:10083000C9F93F237B600023BB600023FB600023DA
:100840003B6100237B610023BB610023FB6100232C
:100850003B623B1D0121184604F06EFC0346002B51
:1008600001D000F0AFF900BF7037BD4680BD00BFBA
:10087000000400580048025880B500AF1E4B1F4AC4
:100880001A601F4B00221A701D4B80225A701C4B9D
:10089000E1229A701A4B0022DA70194B00221A7169
:1008A000174B00225A71144B154A5A60124B012201
:1008B0001A72114B134ADA600F4B134A1A610E4B2E
:1008C00040F2F4525A610C4803F042F80346002B00
:1008D00001D000F077F9382200210C4809F040FDE2
:1008E0000A4B21221A60094B4FF440325A61074BE0
:1008F00000221A6100BF80BD9801002400800240E0
:1009000014080024E4000024840000246001002472
:1009100080B500AF224B234A1A60214B4FF4165288
:100920005A601F4B00229A601D4B0022DA601C4B5C
:1009300000221A611A4B0C225A61194B00229A614B
:10094000174B0022DA61164B00221A62144B002268
:100950005A62134B00229A62114806F0A5FD034625
:10096000002B01D000F02EF900210D4809F0F9F814
:100970000346002B01D000F025F90021084809F0BA
:100980002EF90346002B01D000F01CF9044809F0B1
:10099000AFF80346002B01D000F014F900BF80BD72
:1009A000480200240048004080B500AF154B164AAD
:1009B0001A60144B09225A60124B02221A61114B21
:1009C0000022DA600F4B02229A610E4B0122DA619B
:1009D0000C4B00221A620B4B00225A62094B012277
:1009E0009A62084B0122DA62064B00221A6305481C
:1009F00003F0B5FD0346002B01D000F0E3F800BF83
:100A000080BD00BFDC0200240000084080B58CB02F
:100A100000AF07F11C0300221A605A609A60DA6086
:100A20001A61624BD3F8E030604A43F00403C2F825
:100A3000E0305E4BD3F8E03003F00403BB61BB69E8
:100A40005A4BD3F8E030594A43F08003C2F8E03003
:100A5000564BD3F8E03003F080037B617B69534B46
:100A6000D3F8E030514A43F00103C2F8E0304F4B75
:100A7000D3F8E03003F001033B613B694B4BD3F803
:100A8000E0304A4A43F00203C2F8E030474BD3F863
:100A9000E03003F00203FB60FB68444BD3F8E03026
:100AA000424A43F00803C2F8E030404BD3F8E0304C
:100AB00003F00803BB60BB683C4BD3F8E0303B4A13
:100AC00043F04003C2F8E030384BD3F8E03003F095
:100AD00040037B607B68354BD3F8E030334A43F00A
:100AE0001003C2F8E030314BD3F8E03003F01003CC
:100AF0003B603B68002244F201012D4803F0FCFCFE
:100B000000224FF480612B4803F0F6FC0022022102
:100B1000294803F0F1FC4FF40053FB6100233B62D2
:100B200000237B6207F11C031946244803F034FBC1
:100B300044F20103FB6101233B6200237B6200233B
:100B4000BB6207F11C031946194803F025FB4FF45B
:100B50008063FB6101233B6200237B620023BB6255
:100B600007F11C031946134803F016FB8023FB61B1
:100B70004FF488133B6200237B6207F11C03194684
:100B80000F4803F009FB0223FB6101233B620023B2
:100B90007B620023BB6207F11C031946064803F081
:100BA000FBFA00BF3037BD4680BD00BF004402588D
:100BB00000040258000C02580010025800080258A5
:100BC0000018025880B400AF72B600BFFEE7000004
:100BD00080B582B000AF7860084B1B685B01084AA3
:100BE00013447968184609F0E3FB044B1B68013392
:100BF000024A136000BF0837BD4680BD1C150024A3
:100C00009C08002480B487B000AFF860B9607A60B7
:100C10003B6000237B6100233B617B687B610DE0CF
:100C20007B69BA681A443B69F9680B4412781A70F8
:100C30003B6901333B617B6901337B617A683B68C7
:100C400013447A699A42EBDB3B69FA681344002249
:100C50001A7000BF1C37BD465DF8047B704780B535
:100C600086B000AF786000237B6101233B61786828
:100C7000FFF740FB0346013BFB601FE0FB687A681F
:100C800013441B78312B06D1FB68002B03D07A6903
:100C90003B6913447B61FB687A6813441B78312BF2
:100CA00006D1FB68002B03D17A693B69D31A7B61BB
:100CB0003B695B003B61FB68013BFB60FB68002B11
:100CC000DCDA7B6918461837BD4680BD80B586B032
:100CD00000AF786000237B6101233B617868FFF7F8
:100CE00009FB0346013BFB600FE0FB687A68134495
:100CF0001B78312B03D13B697A6913447B613B69D3
:100D00005B003B61FB68013BFB60FB68002BECDA9E
:100D10007B6918461837BD4680BD000090B5ADF51B
:100D2000197D00AF07F51873A3F517731860CB4B47
:100D30001B68002B00DA03339B101A46C84B1B6854
:100D40009A4281F27E810221C64803F0EEFBC64A38
:100D500007F5B47392E80300186004331980BF4BA1
:100D60001B68002B00DA03339B105B01BF4A991804
:100D700007F5B47006230022FFF744FF07F5B473AC
:100D8000BB491846FFF7ACFA0346002B40F0258517
:100D900007F51873A3F58073B34A92E8030018604F
:100DA00004331980AD4B1B68002B00DA03339B1012
:100DB0005B01AE4A991807F5B07006231A22FFF7B7
:100DC00021FF07F5B073AB491846FFF789FA0346D0
:100DD000002B59D107F51873A3F5847300221A600C
:100DE00000221A719D4B1B68002B00DA03339B1005
:100DF0005B019E4A991807F5AC7005230622FFF7A0
:100E000001FF07F5AC731846FFF760FFC7F8F40160
:100E1000924B1B68002B00DA03339B105B01934A53
:100E2000991807F5AC7005230B22FFF7EBFE07F5C9
:100E3000AC731846FFF74AFFC7F8F001874B1B68F1
:100E4000002B00DA03339B105B01884A991807F5E1
:100E5000AC7005231022FFF7D5FE07F5AC731846DA
:100E6000FFF7FDFEC7F8EC01834AD7F8F43152F8DA
:100E700023208149D7F8F03151F823301A447E49B4
:100E8000D7F8EC3141F8232007F5B0737B491846B9
:100E9000FFF726FA0346002B59D107F51873A3F57F
:100EA000887300221A6000221A716C4B1B68002B99
:100EB00000DA03339B105B016C4A991807F5A870A0
:100EC00005230622FFF79EFE07F5A8731846FFF7D5
:100ED000FDFEC7F8E801614B1B68002B00DA033305
:100EE0009B105B01614A991807F5A87005230B2236
:100EF000FFF788FE07F5A8731846FFF7E7FEC7F867
:100F0000E401564B1B68002B00DA03339B105B0196
:100F1000564A991807F5A87005231022FFF772FEAC
:100F200007F5A8731846FFF7D1FEC7F8E001524A4B
:100F3000D7F8E83152F823204F49D7F8E43151F877
:100F400023301A444C49D7F8E03141F8232007F503
:100F5000B0734B491846FFF7C3F90346002B59D12C
:100F600007F51873A3F58C7300221A6000221A711A
:100F70003A4B1B68002B00DA03339B105B013B4AA2
:100F8000991807F5A47005230622FFF73BFE07F525
:100F9000A4731846FFF79AFEC7F8DC012F4B1B68B5
:100FA000002B00DA03339B105B01304A991807F5D8
:100FB000A47005230B22FFF725FE07F5A47318463E
:100FC000FFF784FEC7F8D801244B1B68002B00DA1A
:100FD00003339B105B01254A991807F5A47005237C
:100FE0001022FFF70FFE07F5A4731846FFF737FE30
:100FF000C7F8D401204AD7F8DC3152F823201E4923
:10100000D7F8D83151F82330D21A1B49D7F8D43148
:1010100041F8232007F5B0731A491846FFF760F925
:101020000346002B70D107F51873A3F590730022C7
:101030001A6000221A71094B1B68002B00DA033377
:101040009B105B01094A991807F5A0700523062239
:10105000FFF7D8FD07F5A073184615E0201500240A
:101060001C150024001002582CAD00089C08002418
:1010700074AC00087CAC00081C08002484AC000898
:101080008CAC000894AC0008FFF720FEC7F8D00134
:10109000CE4B1B68002B00DA03339B105B01CC4A5C
:1010A000991807F5A07005230B22FFF7ABFD07F594
:1010B000A0731846FFF70AFEC7F8CC01C34B1B68A4
:1010C000002B00DA03339B105B01C14A991807F526
:1010D000A07005231022FFF795FD07F5A0731846B1
:1010E000FFF7F4FDC7F8C801BA4AD7F8D03152F873
:1010F0002320B849D7F8CC3151F82330D21AB5495A
:10110000D7F8C83141F8232007F5B073B249184623
:10111000FFF7E6F80346002B59D107F51873A3F53E
:10112000947300221A6000221A71A84B1B68002BCE
:1011300000DA03339B105B01A54A991807F59C70F0
:1011400005230622FFF75EFD07F59C731846FFF79F
:10115000BDFDC7F8C4019D4B1B68002B00DA0333AB
:101160009B105B019A4A991807F59C7005230B2286
:10117000FFF748FD07F59C731846FFF7A7FDC7F872
:10118000C001924B1B68002B00DA03339B105B01FC
:101190008F4A991807F59C7005231022FFF732FD3E
:1011A00007F59C731846FFF75AFDC7F8BC01894A3A
:1011B000D7F8C43152F823208649D7F8C03151F806
:1011C00023301A408349D7F8BC3141F8232007F572
:1011D000B07382491846FFF783F80346002B59D1B4
:1011E00007F51873A3F5987300221A6000221A718C
:1011F000764B1B68002B00DA03339B105B01744AAB
:10120000991807F5987005230622FFF7FBFC07F5F0
:1012100098731846FFF75AFDC7F8B8016B4B1B6867
:10122000002B00DA03339B105B01694A991807F51C
:10123000987005230B22FFF7E5FC07F59873184615
:10124000FFF744FDC7F8B401604B1B68002B00DAC0
:1012500003339B105B015E4A991807F598700523CC
:101260001022FFF7CFFC07F598731846FFF7F7FC3D
:10127000C7F8B001574AD7F8B83152F8232055497A
:10128000D7F8B43151F823301A435249D7F8B03166
:1012900041F8232007F5B07351491846FFF720F8AD
:1012A0000346002B5AD107F51873A3F59C7300224F
:1012B0001A6000221A71454B1B68002B00DA0333B9
:1012C0009B105B01424A991807F59470052306228A
:1012D000FFF798FC07F594731846FFF7F7FCC7F87B
:1012E000AC013A4B1B68002B00DA03339B105B0107
:1012F000374A991807F5947005230B22FFF782FCF3
:1013000007F594731846FFF7E1FCC7F8A8012F4BC7
:101310001B68002B00DA03339B105B012C4A9918E1
:1013200007F5947005231022FFF76CFC07F5947302
:101330001846FFF794FCC7F8A401264AD7F8AC3149
:1013400052F823202349D7F8A83151F8233013430A
:10135000DA432049D7F8A43141F8232007F5B073C8
:1013600020491846FEF7BCFF0346002B24D107F5A1
:101370001873A3F5A07300221A6000221A71134B90
:101380001B68002B00DA03339B105B01104A99188D
:1013900007F5907005230622FFF734FC07F59073DC
:1013A0001846FFF793FCC7F8A0010A4AD7F8A03106
:1013B00052F82330054A136007F5B0730A491846FE
:1013C000FEF78EFF0346002B67D10FE020150024A7
:1013D0009C0800241C0800249CAC0008A4AC000855
:1013E000ACAC0008B4AC000874AC000807F5187386
:1013F000A3F5A47300221A6000221A71C04B1B6867
:10140000002B00DA03339B105B01BE4A991807F5E5
:101410008C7005230B22FFF7F5FB07F58C7318463C
:10142000FFF754FCC7F89C01B54B1B68002B00DA92
:1014300003339B105B01B34A991807F58C700523A1
:101440001522FFF7DFFB07F58C731846FFF73EFC0C
:10145000C7F89801AA4B1B68002B00DA03339B10D6
:101460005B01A84A991807F58C7005231022FFF735
:10147000C9FB07F58C731846FFF7F1FBC7F8940119
:10148000A14AD7F89C3152F82320D7F898319A40D6
:101490009D49D7F8943141F8232007F5B0739B4953
:1014A0001846FEF71DFF0346002B56D107F51873AB
:1014B000A3F5A87300221A6000221A71904B1B68D2
:1014C000002B00DA03339B105B018E4A991807F555
:1014D000887005230B22FFF795FB07F588731846E4
:1014E000FFF7F4FBC7F89001854B1B68002B00DA6F
:1014F00003339B105B01834A991807F58870052315
:101500001522FFF77FFB07F588731846FFF7DEFB10
:10151000C7F88C017A4B1B68002B00DA03339B1051
:101520005B01784A991807F5887005231022FFF7A8
:1015300069FB07F588731846FFF791FBC7F8880128
:10154000714AD7F8903152F82320D7F88C311A41DC
:101550006D49D7F8883141F8232007F5B0736C49FD
:101560001846FEF7BDFE0346002B62D107F518733F
:10157000A3F5AC7300221A6000221A71604B1B683D
:10158000002B00DA03339B105B015E4A991807F5C4
:10159000847005230622FFF735FB07F58473184690
:1015A000FFF794FBC7F88401554B1B68002B00DA4A
:1015B00003339B105B01534A991807F58470052388
:1015C0000B22FFF71FFB07F584731846FFF77EFB1E
:1015D000C7F880014A4B1B68002B00DA03339B10CD
:1015E0005B01484A991807F5847005231022FFF71C
:1015F00009FB07F584731846FFF731FBC7F87C0138
:10160000414AD7F8843152F823203F49D7F8803136
:1016100051F823309A4206DA3B4AD7F87C3101214F
:1016200042F8231005E0384AD7F87C31002142F80F
:10163000231007F5B07337491846FEF751FE0346ED
:10164000002B6FD107F51873A3F5B07300221A6051
:1016500000221A712A4B1B68002B00DA03339B10FF
:101660005B01284A991807F5807005230622FFF7C9
:10167000C9FA07F580731846FFF728FBC7F8780109
:101680001F4B1B68002B00DA03339B105B011D4AC4
:10169000991807F5807005230B22FFF7B3FA07F5B9
:1016A00080731846FFF712FBC7F87401144B1B68D0
:1016B000002B00DA03339B105B01124A991807F5DF
:1016C000807005231022FFF79DFA07F580731846F6
:1016D000FFF7FCFAC7F870010B4AD7F8783152F8D7
:1016E00023200949D7F8743151F823309A4213DA8C
:1016F000054AD7F87031012142F8231012E000BFEB
:10170000201500249C0800241C080024BCAC000800
:10171000C4AC0008CCAC00086F4AD7F87031002187
:1017200042F8231007F5B0736C491846FEF7D8FD50
:101730000346002B40F080840121694802F0F5FE49
:10174000654B9B68012B12D1634B1B691A46654997
:10175000654808F00DFE03469AB207F51873A3F525
:1017600017704FF47A736049006805F0EDFE5A4B2C
:101770009B680B2B12D1584B1B691A465B495A4880
:1017800008F0F6FD03469AB207F51873A3F5177033
:101790004FF47A735449006805F0D6FE4E4B9B68AF
:1017A0000A2B40F04984524B00221A60514B6FF0D3
:1017B00003021A60312250494B4808F0D9FD034614
:1017C0009AB207F51873A3F517704FF47A73464968
:1017D000006805F0B9FE00F02FBC07F5B473474967
:1017E0001846FEF77DFD0346002B33D107F518732D
:1017F000A3F5BE7300221A60043300221A605A60F7
:101800009A60DA601A619A823A4B1B68002B00DA00
:1018100003339B105B013A4A991807F1E4001A233D
:101820000622FFF7EFF9334B1B6803F0704407F112
:10183000E4031846FFF74AFA03469B002344A3F546
:101840008003C7F8F831D7F8F831043B1A46294B22
:101850001A60F1E307F5B4732A491846FEF740FD14
:101860000346002B50D107F51873A3F5CC73002263
:101870001A60043300221A605A609A60DA601A61B2
:101880009A821C4B1B68002B00DA03339B105B0110
:101890001B4A991807F1C8001A230622FFF7B2F96C
:1018A000144B1B6803F0704407F1C8031846FFF798
:1018B0000DFA03469B002344A3F58003C7F8FC31CF
:1018C0000C4B1B68044AD367D7F8FC31043B1A461B
:1018D000084B1A60B0E300BF1C080024D4AC000819
:1018E00000040258DCAC000824150024E4AC000815
:1018F0001C15002420150024ECAC0008BCAC00082A
:101900009C080024F4AC000807F5B473CD491846D0
:10191000FEF7E6FC0346002B61D107F51873A3F52B
:10192000D07300221A6000221A7107F51873A3F50C
:10193000D87300221A60043300221A605A609A6039
:10194000C14B1B68002B00DA03339B105B01BF4ABD
:10195000991807F1C00005230622FFF753F907F194
:10196000C0031846FFF7B2F9C7F85C02B64B1B6814
:10197000002B00DA03339B105B01B44A991807F17E
:10198000C00005230B22FFF73DF907F1C0031846FD
:10199000FFF79CF9C7F85802AB4B1B68002B00DA25
:1019A00003339B105B01A94A991807F1B00010237B
:1019B0001022FFF727F907F1B0031846FFF74FF998
:1019C000C7F85402A24AD7F85C3252F82320D7F85D
:1019D00054321A449E49D7F8583241F8232007F56B
:1019E000B4739C491846FEF77BFC0346002B63D179
:1019F00007F51873A3F5DC7300221A6000221A7130
:101A000007F51873A3F5E47300221A60043300226B
:101A10001A605A609A608C4B1B68002B00DA033303
:101A20009B105B01894A991807F1A800052306223B
:101A3000FFF7E8F807F1A8031846FFF747F9C7F8DA
:101A40005002814B1B68002B00DA03339B105B01B3
:101A50007E4A991807F1A80005230B22FFF7D2F858
:101A600007F1A8031846FFF731F9C7F84C02764B87
:101A70001B68002B00DA03339B105B01734A991833
:101A800007F1980010231022FFF7BCF807F1980324
:101A90001846FFF71BF9C7F848026D4AD7F85032CD
:101AA00052F823301A46D7F8483213441946684A88
:101AB000D7F84C3242F8231007F5B473664918463C
:101AC000FEF70EFC0346002B61D107F51873A3F552
:101AD000E87300221A6000221A7107F51873A3F543
:101AE000F07300221A60043300221A605A609A6070
:101AF000554B1B68002B00DA03339B105B01534AE4
:101B0000991807F1900005230622FFF77BF807F1EB
:101B100090031846FFF7DAF8C7F844024A4B1B68EF
:101B2000002B00DA03339B105B01484A991807F138
:101B3000900005230B22FFF765F807F19003184684
:101B4000FFF7C4F8C7F840023F4B1B68002B00DAD0
:101B500003339B105B013D4A991807F18000102365
:101B60001022FFF74FF807F180031846FFF777F8C8
:101B7000C7F83C02364AD7F8443252F82320D7F847
:101B80003C321A403249D7F8403241F8232007F559
:101B9000B47332491846FEF7A3FB0346002B71D1FC
:101BA00007F51873A3F5F47300221A6000221A7166
:101BB00007F51873A3F5FC7300221A6004330022A2
:101BC0001A605A609A60204B1B68002B00DA0333BE
:101BD0009B105B011D4A991807F178000523062226
:101BE000FFF710F807F178031846FFF76FF8C7F80A
:101BF0003802154B1B68002B00DA03339B105B0186
:101C0000124A991807F1780005230B22FEF7FAFF14
:101C100007F178031846FFF759F8C7F834020A4B62
:101C20001B68002B00DA03339B105B01074A9918ED
:101C300007F1680010231022FEF7E4FF07F16803A4
:101C40000EE000BFB4AC0008201500249C0800245E
:101C50001C080024FCAC0008D4AC000804AD00084B
:101C60001846FEF7FCFFC7F83002784AD7F838323A
:101C700052F82320D7F830321A437449D7F8343257
:101C800041F8232007F5B47371491846FEF728FB85
:101C90000346002B6AD107F51873A3F500730022E1
:101CA0001A6000221A7107F51873A3F50473002255
:101CB0001A60043300221A605A609A60654B1B68F0
:101CC000002B00DA03339B105B01634A991807F17C
:101CD000600005230622FEF795FF07F16003184612
:101CE000FEF7F4FFC7F82C025A4B1B68002B00DAF2
:101CF00003339B105B01584A991807F160000523D4
:101D00000B22FEF77FFF07F160031846FEF7DEFFA8
:101D1000C7F828024F4B1B68002B00DA03339B10D7
:101D20005B014D4A991807F1500010231022FEF76D
:101D300069FF07F150031846FEF791FFC7F8240228
:101D4000424AD7F82C3252F82330D7F824229A424C
:101D500006DD3E4AD7F82832012142F8231005E07B
:101D60003A4AD7F82832002142F8231007F5B47315
:101D70003A491846FEF7B4FA0346002B76D107F528
:101D80001873A3F5067300221A6000221A7107F572
:101D90001873A3F50A7300221A60043300221A6034
:101DA0005A609A602B4B1B68002B00DA03339B10A0
:101DB0005B01294A991807F1480005230622FEF71E
:101DC00021FF07F148031846FEF780FFC7F82002FD
:101DD000204B1B68002B00DA03339B105B011E4A6B
:101DE000991807F1480005230B22FEF70BFF07F1B6
:101DF00048031846FEF76AFFC7F81C02154B1B681C
:101E0000002B00DA03339B105B01134A991807F18A
:101E1000380010231022FEF7F5FE07F138031846AC
:101E2000FEF754FFC7F81802084AD7F8203252F8D4
:101E300023301A46D7F81832934211D9034AD7F8FB
:101E40001C32012142F8231010E000BF1C080024BE
:101E50000CAD0008201500249C08002414AD0008D7
:101E60007A4AD7F81C32002142F8231007F5B473E0
:101E700077491846FEF734FA0346002B69D107F577
:101E80001873A3F50C7300221A6000221A7107F56B
:101E90001873A3F5107300221A60043300221A602D
:101EA0005A609A606B4B1B68002B00DA03339B105F
:101EB0005B01694A991807F1300005230622FEF7F5
:101EC000A1FE07F130031846FEF700FFC7F8140221
:101ED000604B1B68002B00DA03339B105B015E4AEA
:101EE000991807F1300005230B22FEF78BFE07F14E
:101EF00030031846FEF7EAFEC7F81002554B1B6880
:101F0000002B00DA03339B105B01534A991807F149
:101F1000200010231022FEF775FE07F1200318465B
:101F2000FEF79DFE03469A004A4B1B681344C7F810
:101F30000C32464AD7F8143252F823204349D7F8D6
:101F4000103251F823309A4203D1424AD7F80C326A
:101F5000136007F5B47341491846FEF7C1F903460B
:101F6000002B69D107F51873A3F5127300221A60CC
:101F700000221A7107F51873A3F5167300221A6070
:101F8000043300221A605A609A60324B1B68002B9F
:101F900000DA03339B105B012F4A991807F11800F0
:101FA00005230622FEF72EFE07F118031846FEF75A
:101FB0008DFEC7F80802274B1B68002B00DA03339D
:101FC0009B105B01244A991807F1180005230B2286
:101FD000FEF718FE07F118031846FEF777FEC7F85C
:101FE00004021C4B1B68002B00DA03339B105B01BF
:101FF000194A991807F1080010231022FEF702FE73
:1020000007F108031846FEF72AFE03469A00114B13
:102010001B681344C7F800320C4AD7F8083252F84C
:1020200023200A49D7F8043251F823309A4203D0CA
:10203000084AD7F800321360064B1B680433054A80
:10204000136000BF07F51977BD4690BD1C0800243A
:102050001CAD0008201500249C08002424AD0008B5
:1020600080B483B000AF0A4BD3F8F430084A43F091
:102070000203C2F8F430064BD3F8F43003F0020345
:102080007B607B6800BF0C37BD465DF8047B704702
:102090000044025880B58EB000AF786007F1240389
:1020A00000221A605A609A60DA601A617B681B68C5
:1020B000594A934240F0AB80584BD3F8D830574A36
:1020C00043F40043C2F8D830544BD3F8D83003F46B
:1020D00000433B623B6A514BD3F8D8304F4A43F43C
:1020E0008033C2F8D8304D4BD3F8D83003F4803366
:1020F000FB61FB69494BD3F8D830484A43F40033BD
:10210000C2F8D830454BD3F8D83003F40033BB6164
:10211000BB69424BD3F8E030404A43F00403C2F8B5
:10212000E0303E4BD3F8E03003F004037B617B6981
:102130003A4BD3F8E030394A43F00103C2F8E030BB
:10214000364BD3F8E03003F001033B613B69334B7E
:10215000D3F8E030314A43F00203C2F8E0302F4BAD
:10216000D3F8E03003F00203FB60FB682B4BD3F89D
:10217000E0302A4A43F04003C2F8E030274BD3F85E
:10218000E03003F04003BB60BB6832237B62022374
:10219000BB620023FB6200233B630B237B6307F1DD
:1021A000240319461E4801F0F7FF86237B620223B1
:1021B000BB620023FB6200233B630B237B6307F1BD
:1021C00024031946174801F0E7FF4FF400537B62E0
:1021D0000223BB620023FB6200233B630B237B6370
:1021E00007F124031946104801F0D6FF4FF420539D
:1021F0007B620223BB620023FB6200233B630B2351
:102200007B6307F124031946084801F0C5FF00BFAE
:102210003837BD4680BD00BF0080024000440258F0
:102220000008025800000258000402580018025822
:1022300080B5BAB000AF786007F1D40300221A600D
:102240005A609A60DA601A6107F11003C022002117
:10225000184608F085F87B681B682B4A93424ED1DC
:102260004FF002024FF00003C7E904230023C7F830
:10227000883007F11003184603F0EAFA0346002BF2
:1022800001D0FEF79FFC214BD3F8E8301F4A43F4FE
:102290008023C2F8E8301D4BD3F8E83003F48023E4
:1022A000FB60FB68194BD3F8E030184A43F0080391
:1022B000C2F8E030154BD3F8E03003F00803BB6000
:1022C000BB684FF44073C7F8D4300223C7F8D83046
:1022D0000023C7F8DC300023C7F8E0300723C7F835
:1022E000E43007F1D4031946094801F055FF0022F4
:1022F0000021272000F093FD272000F0AAFD00BF59
:10230000E837BD4680BD00BF004800400044025889
:10231000000C025880B5BAB000AF786007F1D40362
:1023200000221A605A609A60DA601A6107F110039D
:10233000C0220021184608F013F87B681B68304A59
:10234000934259D14FF480224FF00003C7E9042390
:102350004FF48013C7F8983007F11003184603F0C4
:1023600077FA0346002B01D0FEF72CFC02F07AFA34
:10237000244BD3F8E030234A43F00103C2F8E030A5
:10238000204BD3F8E03003F00103FB60FB684FF40F
:10239000C853C7F8D4300223C7F8D8300023C7F891
:1023A000DC300023C7F8E0300A23C7F8E43007F137
:1023B000D4031946144801F0EFFE4FF40073C7F838
:1023C000D4300023C7F8D8300023C7F8DC3007F139
:1023D000D40319460C4801F0DFFE0A4BD3F8D8307D
:1023E000084A43F00063C2F8D830064BD3F8D8301F
:1023F00003F00063BB60BB6800BFE837BD4680BD2B
:1024000000000840004402580000025880B400AFA9
:10241000FEE780B400AFFEE780B400AFFEE780B413
:1024200000AFFEE780B400AFFEE780B400AF00BFAE
:10243000BD465DF8047B704780B400AF00BFBD4669
:102440005DF8047B704780B400AF00BFBD465DF807
:10245000047B704780B500AF00F0A2FB00BF80BDD9
:1024600080B500AF024805F049F900BF80BD00BF4C
:102470004802002480B586B000AF7860144A154B3E
:10248000D31A7B617B693B61134B1B68002B02D124
:10249000114B124A1A60104B1A687B6813443A6950
:1024A0009A4207D207F032FF03460C221A604FF01F
:1024B000FF3309E0084B1B68FB60074B1A687B6819
:1024C0001344054A1360FB6818461837BD4680BDA3
:1024D0000000082400040000581500248015002482
:1024E00080B400AF374BD3F88830364A43F47003DA
:1024F000C2F88830344B1B6803F00F03062B07D853
:10250000314B1B6823F00F032F4A43F0070313607E
:102510002E4B1B682D4A43F0010313602B4B002206
:102520001A612A4B1A682949294B13400B60264B24
:102530001B6803F00803002B07D0234B1B6823F014
:102540000F03214A43F007031360204B00229A61D6
:102550001E4B0022DA611D4B00221A621B4B1D4AE2
:102560009A621A4B1C4ADA62184B1C4A1A63174BC0
:1025700000225A63154B194A9A63144B0022DA63FE
:10258000124B164A1A64114B00225A640F4B1B68F7
:102590000E4A23F4802313600C4B00221A66104B62
:1025A0001A68104B1340B3F1005F02D20E4B0122A8
:1025B0001A600E4B43F2D2021A6000BFBD465DF8AE
:1025C000047B704700ED00E00020005200440258F8
:1025D0007FEDF6EA000202020000FF018002010125
:1025E0000010005C0000FFFF088100510040005215
:1025F00080B500AFBD4B1B78002B02D0012B1BD048
:1026000006E2BB4B00221A70BA4B1B68BA4AD35C75
:10261000212B08D1B54B01221A704FF48041B748E5
:1026200001F083FF02E0B14B00221A70B14B1B682E
:102630000133B04A1360EBE1AE4B1B68AE4AD35C8A
:10264000233B432B00F2D98101A252F823F000BFB3
:10265000E1290008FB290008FB290008FB290008E4
:10266000FB290008FB290008FB290008FB290008BA
:10267000FB290008FB290008FB290008FB290008AA
:10268000FB2900086127000885270008A927000802
:10269000CD270008F1270008152800083928000870
:1026A0005D28000881280008A5280008FB290008EB
:1026B000FB290008FB290008FB290008FB2900086A
:1026C000FB290008FB290008FB290008FB2900085A
:1026D000FB290008FB290008FB290008FB2900084A
:1026E000FB290008FB290008FB290008FB2900083A
:1026F000FB290008FB290008FB290008FB2900082A
:10270000FB290008FB290008FB290008FB29000819
:10271000FB290008FB290008FB290008FB29000809
:10272000FB290008FB290008FB290008FB290008F9
:10273000FB290008FB290008FB290008FB290008E9
:10274000FB290008FB290008C92800082D290008DA
:10275000512900087529000899290008BD29000899
:102760006348FDF7C7FD03461A46614B1344644AAC
:102770001068186012791A715E4B1B6801335D4A4C
:10278000136044E15A48FDF7B5FD03461A46584B1D
:1027900013445C4A1068186012791A71554B1B6813
:1027A0000133544A136032E15148FDF7A3FD03465B
:1027B0001A464F4B1344544A1068186012791A7124
:1027C0004C4B1B6801334B4A136020E14848FDF72E
:1027D00091FD03461A46464B13444C4A1068186054
:1027E00012791A71434B1B680133424A13600EE1A0
:1027F0003F48FDF77FFD03461A463D4B1344444ACC
:102800001068186012791A713A4B1B680133394A03
:102810001360FCE03648FDF76DFD03461A46344B65
:1028200013443C4A1068186012791A71314B1B68C6
:102830000133304A1360EAE02D48FDF75BFD0346A3
:102840001A462B4B1344344A1068186012791A71D7
:10285000284B1B680133274A1360D8E02448FDF752
:1028600049FD03461A46224B13442C4A106818604F
:1028700012791A711F4B1B6801331E4A1360C6E0A0
:102880001B48FDF737FD03461A46194B1344244AEB
:102890001068186012791A71164B1B680133154ABB
:1028A0001360B4E01248FDF725FD03461A46104BAD
:1028B00013441C4A1068186012791A710D4B1B687A
:1028C00001330C4A1360A2E00948FDF713FD0346EB
:1028D0001A46074B1344144A1068186012791A718B
:1028E000044B1B680133034A136090E05C1500241D
:1028F000F40700246015002400000024000402589E
:1029000034AD00083CAD000844AD00084CAD0008F3
:1029100054AD00085CAD000864AD00086CAD000863
:1029200074AD00087CAD000884AD00083948FDF79F
:10293000E1FC03461A46374B1344374A10681860C7
:1029400012791A71354B1B680133344A13605EE00B
:102950003048FDF7CFFC03461A462E4B1344304A4D
:102960001068186012791A712C4B1B6801332B4ABE
:1029700013604CE02748FDF7BDFC03461A46254B83
:102980001344284A1068186012791A71234B1B6887
:102990000133224A13603AE01E48FDF7ABFC0346C0
:1029A0001A461C4B1344204A1068186012791A7199
:1029B0001A4B1B680133194A136028E01548FDF7CC
:1029C00099FC03461A46134B1344184A10681860C2
:1029D00012791A71114B1B680133104A136016E00B
:1029E000134B01221A600D4B00221A60114B00227A
:1029F0001A60114B00221A7009E00F4B00221A7066
:102A0000064B00221A600B4B00221A6000BF00BF69
:102A100000BF80BDF40700248CAD000860150024C1
:102A200094AD00089CAD0008A4AD0008ACAD000852
:102A300064150024EC0700245C15002480B582B0E6
:102A400000AF7860064B1B68012B05D1044B0022B8
:102A50001A600448FEF7BCF800BF0837BD4680BDC9
:102A600064150024F4070024DFF834D0FFF738FDA4
:102A70000C480D490D4A002302E0D458C4500433D9
:102A8000C4188C42F9D30A4A0A4C002301E01360AF
:102A90000432A242FBD307F03FFCFDF739FE70473A
:102AA00000000824000000248400002430AE000848
:102AB000440100247C150024FEE7000080B582B0AC
:102AC00000AF032000F0A0F902F0ECFC0246154B29
:102AD0009B691B0A03F00F031349CB5C03F01F0330
:102AE00022FA03F37B600F4B9B6903F00F030E4A3E
:102AF000D35C03F01F037A6822FA03F30B4A1360D6
:102B00000B4A7B681360002000F014F80346002B8A
:102B100001D0012302E0FFF7A3FA0023184608378B
:102B2000BD4680BD00440258B4AD00081400002426
:102B30001000002480B582B000AF7860154B1B7880
:102B4000002B01D1012321E0134B1A68114B1B7894
:102B500019464FF47A73B3FBF1F3B2FBF3F3184663
:102B600000F085F90346002B01D001230EE07B68BD
:102B70000F2B0AD8002279684FF0FF3000F04FF990
:102B8000064A7B681360002300E0012318460837DB
:102B9000BD4680BD1C000024100000241800002445
:102BA00080B400AF064B1B781A46064B1B681344D3
:102BB000044A136000BFBD465DF8047B704700BF48
:102BC0001C0000246815002480B400AF034B1B6870
:102BD0001846BD465DF8047B704700BF68150024A9
:102BE00080B584B000AF7860FFF7EEFFB8607B6817
:102BF000FB60FB68B3F1FF3F05D00A4B1B781A4618
:102C0000FB681344FB6000BFFFF7DEFF0246BB68B2
:102C1000D31AFA689A42F7D800BF00BF1037BD46F2
:102C200080BD00BF1C00002480B400AF034B1B68B4
:102C30001B0C1846BD465DF8047B70470010005C15
:102C400080B483B000AF7860064B5B6823F4600209
:102C500004497B6813434B6000BF0C37BD465DF8E9
:102C6000047B70470004005880B485B000AF7860E2
:102C70007B6803F00703FB600B4BDB68BB60BA6843
:102C80004FF6FF031340BB60FB681A02BB681A4390
:102C9000064B1343BB60044ABB68D36000BF1437C4
:102CA000BD465DF8047B704700ED00E00000FA05CA
:102CB00080B400AF044BDB681B0A03F0070318461F
:102CC000BD465DF8047B704700ED00E080B483B042
:102CD00000AF0346FB80B7F90630002B0BDBFB8807
:102CE00003F01F020749B7F906305B09012000FA1B
:102CF00002F241F8232000BF0C37BD465DF8047B8B
:102D0000704700BF00E100E080B483B000AF03462D
:102D10003960FB80B7F90630002B0ADB3B68DAB27A
:102D20000C49B7F906301201D2B20B4483F80023E4
:102D30000AE03B68DAB20849FB8803F00F03043B62
:102D40001201D2B20B441A7600BF0C37BD465DF8B3
:102D5000047B704700E100E000ED00E080B489B042
:102D600000AFF860B9607A60FB6803F00703FB61AD
:102D7000FB69C3F10703042B28BF0423BB61FB6974
:102D80000433062B02D9FB69033B00E000237B617F
:102D90004FF0FF32BB6902FA03F3DA43BB681A4013
:102DA0007B699A404FF0FF317B6901FA03F3D94305
:102DB0007B680B40134318462437BD465DF8047BFF
:102DC0007047000080B582B000AF78607B68013B3F
:102DD000B3F1807F01D301230FE00A4A7B68013BF6
:102DE00053600F214FF0FF30FFF78EFF054B00229D
:102DF0009A60044B07221A60002318460837BD4624
:102E000080BD00BF10E000E080B582B000AF786008
:102E10007868FFF729FF00BF0837BD4680BD80B541
:102E200086B000AF0346B9607A60FB81FFF740FFD0
:102E300078617A68B9687869FFF790FF0246B7F958
:102E40000E3011461846FFF75FFF00BF1837BD462A
:102E500080BD80B582B000AF0346FB80B7F9063075
:102E60001846FFF733FF00BF0837BD4680BD80B569
:102E700082B000AF78607868FFF7A4FF0346184679
:102E80000837BD4680BD000080B586B000AF7860D1
:102E9000FFF79AFE38617B68002B01D10123DCE249
:102EA0007B6893F83530DBB2022B08D07B68802238
:102EB0005A657B68002283F834200123CDE27B68C9
:102EC0001B68764A93424AD07B681B68744A9342D7
:102ED00045D07B681B68734A934240D07B681B686F
:102EE000714A93423BD07B681B68704A934236D04C
:102EF0007B681B686E4A934231D07B681B686D4AC1
:102F000093422CD07B681B686B4A934227D07B6826
:102F10001B686A4A934222D07B681B68684A9342C6
:102F20001DD07B681B68674A934218D07B681B687A
:102F3000654A934213D07B681B68644A93420ED063
:102F40007B681B68624A934209D07B681B68614AB0
:102F5000934204D07B681B685F4A934201D10123EE
:102F600000E00023002B13D07B681B681A687B6885
:102F70001B6822F01E021A607B681B685A697B6816
:102F80001B6822F080025A617B681B687B610AE043
:102F90007B681B681A687B681B6822F00E021A6047
:102FA0007B681B687B617B681B683C4A934272D0DC
:102FB0007B681B683A4A93426DD07B681B68394A2C
:102FC000934268D07B681B68374A934263D07B6822
:102FD0001B68364A93425ED07B681B68344A934232
:102FE00059D07B681B68334A934254D07B681B6876
:102FF000314A93424FD07B681B68304A93424AD093
:103000007B681B682E4A934245D07B681B682D4A1B
:10301000934240D07B681B682B4A93423BD07B682D
:103020001B682A4A934236D07B681B68284A934221
:1030300031D07B681B68274A93422CD07B681B6881
:10304000254A934227D07B681B68244A934222D0AA
:103050007B681B68224A93421DD07B681B68214A0B
:10306000934218D07B681B681F4A934213D07B6839
:103070001B681E4A93420ED07B681B681C4A934211
:1030800009D07B681B681B4A934204D07B681B688D
:10309000194A934232D1012331E000BF10000240AF
:1030A00028000240400002405800024070000240E8
:1030B00088000240A0000240B80002401004024014
:1030C00028040240400402405804024070040240B8
:1030D00088040240A0040240B80402400854025888
:1030E0001C54025830540258445402585854025840
:1030F0006C54025880540258945402580023002BF8
:1031000007D07B681B6E1A687B681B6E22F4807286
:103110001A607B681B686D4A93424AD07B681B68C3
:103120006B4A934245D07B681B686A4A934240D001
:103130007B681B68684A93423BD07B681B68674A80
:10314000934236D07B681B68654A934231D07B68D6
:103150001B68644A93422CD07B681B68624A934286
:1031600027D07B681B68614A934222D07B681B682A
:103170005F4A93421DD07B681B685E4A934218D019
:103180007B681B685C4A934213D07B681B685B4A70
:1031900093420ED07B681B68594A934209D07B68E2
:1031A0001B68584A934204D07B681B68564A934276
:1031B00008D17B681B681A687B681B6822F00102D3
:1031C0001A6007E07B681B681A687B681B6822F03E
:1031D00001021A6013E0FFF7F7FC02463B69D31ABD
:1031E000052B0CD97B6820225A657B68032283F863
:1031F00035207B68002283F8342001232DE17B6990
:103200001B6803F00103002BE5D17B681B682F4A84
:1032100093424AD07B681B682D4A934245D07B6815
:103220001B682C4A934240D07B681B682A4A934211
:103230003BD07B681B68294A934236D07B681B6869
:10324000274A934231D07B681B68264A93422CD090
:103250007B681B68244A934227D07B681B68234AFB
:10326000934222D07B681B68214A93421DD07B6821
:103270001B68204A934218D07B681B681E4A934201
:1032800013D07B681B681D4A93420ED07B681B6875
:103290001B4A934209D07B681B681A4A934204D0A8
:1032A0007B681B68184A934201D1012300E0002388
:1032B000002B2BD07B689B6DBB607B68DB6D03F0C4
:1032C0001F033F229A40BB689A602AE01000024028
:1032D00028000240400002405800024070000240B6
:1032E00088000240A0000240B800024010040240E2
:1032F0002804024040040240580402407004024086
:1033000088040240A0040240B80402407B689B6D20
:10331000FB607B68DB6D03F01F0301229A40FB68B2
:103320005A607B681B684F4A934272D07B681B6867
:103330004D4A93426DD07B681B684C4A934268D0DB
:103340007B681B684A4A934263D07B681B68494A82
:1033500093425ED07B681B68474A934259D07B6892
:103360001B68464A934254D07B681B68444A934288
:103370004FD07B681B68434A93424AD07B681B68E6
:10338000414A934245D07B681B68404A934240D0F3
:103390007B681B683E4A93423BD07B681B683D4A72
:1033A000934236D07B681B683B4A934231D07B689E
:1033B0001B683A4A93422CD07B681B68384A934278
:1033C00027D07B681B68374A934222D07B681B68F2
:1033D000354A93421DD07B681B68344A934218D00B
:1033E0007B681B68324A934213D07B681B68314A62
:1033F00093420ED07B681B682F4A934209D07B68AA
:103400001B682E4A934204D07B681B682C4A934267
:1034100001D1012300E00023002B15D07B685B6EF7
:103420007A68926E5A607B68DB6E002B0CD07B68EA
:10343000DB6E1A687B68DB6E22F480721A607B6830
:103440001B6F7A68526F5A607B68012283F83520BF
:103450007B68002283F83420002318461837BD46C5
:1034600080BD00BF10000240280002404000024022
:10347000580002407000024088000240A000024054
:10348000B8000240100402402804024040040240F8
:10349000580402407004024088040240A004024024
:1034A000B8040240085402581C54025830540258C0
:1034B00044540258585402586C54025880540258CC
:1034C0009454025880B584B000AF78607B68002BBC
:1034D00001D1012337E27B6893F83530DBB2022B50
:1034E00004D07B6880225A6501232CE27B681B682C
:1034F0005C4A93424AD07B681B685B4A934245D042
:103500007B681B68594A934240D07B681B68584AC5
:1035100093423BD07B681B68564A934236D07B6807
:103520001B68554A934231D07B681B68534A9342CB
:103530002CD07B681B68524A934227D07B681B685B
:10354000504A934222D07B681B684F4A93421DD059
:103550007B681B684D4A934218D07B681B684C4AB5
:10356000934213D07B681B684A4A93420ED07B6813
:103570001B68494A934209D07B681B68474A9342BB
:1035800004D07B681B68464A934201D1012300E0C6
:103590000023002B00F086807B68042283F835200E
:1035A0007B681B682F4A93424AD07B681B682E4A6F
:1035B000934245D07B681B682C4A934240D07B687D
:1035C0001B682B4A93423BD07B681B68294A934275
:1035D00036D07B681B68284A934231D07B681B68D1
:1035E000264A93422CD07B681B68254A934227D0F9
:1035F0007B681B68234A934222D07B681B68224A5F
:1036000093421DD07B681B68204A934218D07B6888
:103610001B681F4A934213D07B681B681D4A934264
:103620000ED07B681B681C4A934209D07B681B68DC
:103630001A4A934204D07B681B68194A934208D106
:103640007B681B681A687B681B6822F001021A609D
:1036500078E17B681B681A687B681B6822F00102AE
:103660001A606FE110000240280002404000024052
:10367000580002407000024088000240A000024052
:10368000B8000240100402402804024040040240F6
:10369000580402407004024088040240A004024022
:1036A000B80402407B681B681A687B681B6822F0BC
:1036B0000E021A607B681B686C4A93424AD07B6892
:1036C0001B686B4A934245D07B681B68694A9342EA
:1036D00040D07B681B68684A93423BD07B681B687C
:1036E000664A934236D07B681B68654A934231D064
:1036F0007B681B68634A93422CD07B681B68624AD4
:10370000934227D07B681B68604A934222D07B6833
:103710001B685F4A93421DD07B681B685D4A9342D9
:1037200018D07B681B685C4A934213D07B681B6887
:103730005A4A93420ED07B681B68594A934209D07B
:103740007B681B68574A934204D07B681B68564AC3
:10375000934208D17B681B681A687B681B6822F05B
:1037600001021A6007E07B681B681A687B681B68A7
:1037700022F001021A607B681B683C4A934272D0B7
:103780007B681B683A4A93426DD07B681B68394A54
:10379000934268D07B681B68374A934263D07B684A
:1037A0001B68364A93425ED07B681B68344A93425A
:1037B00059D07B681B68334A934254D07B681B689E
:1037C000314A93424FD07B681B68304A93424AD0BB
:1037D0007B681B682E4A934245D07B681B682D4A44
:1037E000934240D07B681B682B4A93423BD07B6856
:1037F0001B682A4A934236D07B681B68284A93424A
:1038000031D07B681B68274A93422CD07B681B68A9
:10381000254A934227D07B681B68244A934222D0D2
:103820007B681B68224A93421DD07B681B68214A33
:10383000934218D07B681B681F4A934213D07B6861
:103840001B681E4A93420ED07B681B681C4A934239
:1038500009D07B681B681B4A934204D07B681B68B5
:10386000194A934232D1012331E000BF10000240D7
:103870002800024040000240580002407000024010
:1038800088000240A0000240B8000240100402403C
:1038900028040240400402405804024070040240E0
:1038A00088040240A0040240B804024008540258B0
:1038B0001C54025830540258445402585854025868
:1038C0006C54025880540258945402580023002B20
:1038D00028D07B681B6E1A687B681B6E22F480728E
:1038E0001A607B689B6DFB607B68DB6D03F01F03D8
:1038F00001229A40FB685A607B685B6E7A68926E20
:103900005A607B68DB6E002B0CD07B68DB6E1A681C
:103910007B68DB6E22F480721A607B681B6F7A68AA
:10392000526F5A607B68012283F835207B68002241
:1039300083F834207B681B6D002B03D07B681B6DE4
:1039400078689847002318461037BD4680BD00BFF1
:1039500080B584B000AF78607B68002B01D1012373
:10396000CFE07B68D3F88430002B06D17B6823221C
:10397000C3F884207868FEF78DFB644BD3F8F430ED
:10398000624A43F00203C2F8F430604BD3F8F430DB
:1039900003F00203BB60BB687B681B7A002B03D17A
:1039A0000020FFF74DF903E04FF40000FFF748F95E
:1039B000574B5B687B681B6803F580531B687A680C
:1039C000126843F0010302F580521360FFF7FCF820
:1039D000F86011E0FFF7F8F80246FB68D31AB3F578
:1039E000FA7F09D97B680422C3F888207B68E0222B
:1039F000C3F88420012384E07B681B6803F58053AF
:103A00001B6803F00103002BE4D1786800F086F80E
:103A100001F0C2FE03463F4AA2FB03239A0C7B68D7
:103A20001B68013AC3F8DC20786800F071FA7B6803
:103A30001B6803F58053D3F8003123F4E0137A6850
:103A4000126843F4002302F58052C2F800317B680B
:103A50005B6903F00303002B09D07B680122C3F8E4
:103A600088207B68E022C3F88420012349E07B683A
:103A70001B6803F58053D3F80821274B13407A685D
:103A8000526951007A6812680B4302F58052C2F8FD
:103A90000831786800F0D9FA786800F01FFB7B687D
:103AA0005B6805331B781A027B685B6804331B78FC
:103AB00019467B681B680A43C3F800237B685B6870
:103AC00003331B781A067B685B6802331B781B0480
:103AD0001A437B685B6801331B781B021A437B68BF
:103AE0005B681B7819467B681B680A43C3F804238C
:103AF0007B680022C3F888207B681022C3F88420EA
:103B0000002318461037BD4680BD00BF0044025850
:103B10000004005883DE1B430180FFFF80B584B0A2
:103B200000AF78607B681B68D3F80032FB60FB68ED
:103B300023F47063FB6001F02FFEB860BB681E4A7F
:103B4000934208D9BB681D4A934204D8FB6843F4EA
:103B50000073FB6027E0BB68184A934208D9BB6832
:103B6000174A934204D2FB6843F44073FB601AE0A7
:103B7000BB68134A934203D3BB68124A934211D9DC
:103B8000BB68104A934208D9BB680F4A934204D8D5
:103B9000FB6843F48073FB6005E0FB6843F48063DB
:103BA000FB6000E000BF7B681B68FA68C3F8002276
:103BB00000BF1037BD4680BDFF2C3101BF0E16027D
:103BC00000879303FFE0F5057FD1F00880B485B04E
:103BD00000AF786039603B689A683B681B681A439D
:103BE0003B681B79DB061A433B681B7BDB051A43EA
:103BF0003B685B7B9B051A433B689B7B5B051A43D9
:103C00003B68DB7B1B0513433A68127C002A02D118
:103C10004FF4002200E0002213433A68527C002A4D
:103C200002D14FF4003200E000221A433B689B7C33
:103C30001B041A433B685B691A433B689B691A4340
:103C40003B681B7F1B031A433B685B7FDB0213430C
:103C50003A68927F002A02D14FF4806200E000228D
:103C60001A433B68DB7F5B0213433A6892F82020DB
:103C7000002A02D14FF4807200E000221A433B6810
:103C80005B6A1A433B6893F828301B011A433B6870
:103C9000DB6A1343FB607B681B681A68564B134052
:103CA0007A681268F9680B4313603B68DB6B5A064D
:103CB0003B6893F838301B061A433B6893F8303062
:103CC0009B041A433B6893F831305B0413433A6812
:103CD00092F83220002A02D14FF4803200E0002214
:103CE0001A433B685B6B1343FB607B681B685A6835
:103CF000424B13407A681268F9680B4353603B6883
:103D000093F840301A023B685B6C1343FB607B689E
:103D10001B68DA683A4B13407A681268F9680B43FB
:103D2000D3603B6893F854305A003B681B6D1343D3
:103D30003A6892F84C20002A01D1802200E000224B
:103D40001A433B689B6C1B041343FB607B681B6836
:103D50001A6F4FF60D7313407A681268F9680B43B7
:103D600013673B6893F856301A463B6893F8553012
:103D70005B001343FB607B681B68D3F8903023F033
:103D800003017B681B68FA680A43C3F890207B68CC
:103D90001B68D3F8003D23F072013B689A6D7B6885
:103DA0001B680A43C3F8002D3B68DB6D3A6892F844
:103DB0006020002A01D1402200E000221A433B6823
:103DC00093F861301B011A433B6893F86230DB00C3
:103DD0001343FB607B681B68D3F8303D23F07B0105
:103DE0007B681B68FA680A43C3F8302D00BF14379C
:103DF000BD465DF8047B7047838004000080F8C0F6
:103E0000F0FEFFFF80B485B000AF786039607B685A
:103E10001B6803F580531A68384B13403A681168E1
:103E20007A6812680B4302F5805213603B681B7975
:103E30001A033B689B681A433B681B7BDB031343F5
:103E4000FB607B681B6803F580535A682C4B13405A
:103E50007A681268F9680B4302F5805253603B6838
:103E60005B7B1A043B681B6A1343FB607B681B681F
:103E700003F58053D3F80021224B13407A6812686F
:103E8000F9680B4302F58052C2F800313B681A69A9
:103E90003B681B7D1B011A433B685B7F1B0313437D
:103EA000FB607B681B6803F58053D3F80421164B35
:103EB00013407A681268F9680B4302F58052C2F821
:103EC00004313B681B7FDA073B689B691343FB6047
:103ED0007B681B6803F58053D3F808210B4B134014
:103EE0007A681268F9680B4302F58052C2F808310B
:103EF00000BF1437BD465DF8047B7047FD87FFFFA8
:103F0000FE2FFFFF00C0FEFFEFEFC0FFFFFFC07FEF
:103F100080B5A4B000AF7860012387F83B30002360
:103F20003B65002387F84930002387F84B30012395
:103F300087F83030012387F85E30012387F83A3064
:103F4000002387F85430012387F88C304FF4005356
:103F50007B64002387F864300023BB66002387F866
:103F60008D30002387F88E304FF4C3633B66002307
:103F700087F8383000237B63012387F83D30002326
:103F800087F83E30002387F848300023FB67002382
:103F90007B670023BB65002387F86C30002387F81C
:103FA0008230012387F84A302023C7F88830012364
:103FB00087F84C30002387F85D304FF04053FB62A8
:103FC0004FF480433B64002387F839300223C7F85D
:103FD0008430002387F88030002387F88130002365
:103FE00087F85C30012387F83C3000233B670123CE
:103FF00087F8783007F12C0319467868FFF7E6FD5B
:1040000001233B7301233B610023BB60002387F83E
:10401000243000237B7500233B754FF400133B6273
:1040200000233B774FF40013BB61002387F8253052
:104030004FF40673BB6207F1080319467868FFF76F
:10404000E1FE00BF9037BD4680BD80B485B000AFB3
:1040500078600023FB601DE07B68D968FA6813462E
:104060005B001344DB000B44BB60BB6800221A609A
:10407000BB6800225A60BB6800229A60BB680022BD
:10408000DA60B9687B68FA68063243F82210FB6888
:104090000133FB60FB68032BDED97B6800229A6248
:1040A0007B681B6803F580531A460323C2F82C3142
:1040B0007B68DA687B681B6803F58053C3F81421BA
:1040C0007B68DA687B681B6803F58053C3F820219E
:1040D00000BF1437BD465DF8047B704780B485B0DF
:1040E00000AF78600023FB6023E07B681969FA6801
:1040F00013465B001344DB000B44BB60BB6800222B
:104100001A60BB6800225A60BB6800229A60BB68D4
:104110000022DA60BB6800221A61BB6800225A6183
:10412000B9687B68FA68123243F82210FB680133E1
:10413000FB60FB68032BD8D97B680022DA657B68BB
:1041400000221A667B6800229A667B680022DA6683
:104150007B6800229A657B681B6803F580531A46CA
:104160000323C2F830317B681A697B681B6803F54A
:104170008053C3F81C217B681B6903F148027B68EC
:104180001B6803F58053C3F8282100BF1437BD46D0
:104190005DF8047B7047000080B489B000AF7860A0
:1041A00039600023FB61894B7B6194E13B681A68AD
:1041B0000121FB6901FA03F313403B613B69002BCA
:1041C00000F086813B685B6803F00303012B05D098
:1041D0003B685B6803F00303022B30D17B689B686C
:1041E000BB61FB695B00032202FA03F3DB43BA699C
:1041F0001340BB613B68DA68FB695B0002FA03F3BA
:10420000BA691343BB617B68BA699A607B685B6873
:10421000BB610122FB6902FA03F3DB43BA69134075
:10422000BB613B685B681B0903F00102FB6902FA92
:1042300003F3BA691343BB617B68BA695A603B6890
:104240005B6803F00303032B17D07B68DB68BB615B
:10425000FB695B00032202FA03F3DB43BA691340F4
:10426000BB613B689A68FB695B0002FA03F3BA69B9
:104270001343BB617B68BA69DA603B685B6803F033
:104280000303022B23D1FB69DA087B68083253F859
:104290002230BB61FB6903F007039B000F2202FA87
:1042A00003F3DB43BA691340BB613B681A69FB69DE
:1042B00003F007039B0002FA03F3BA691343BB61DF
:1042C000FB69DA087B680832B96943F822107B6819
:1042D0001B68BB61FB695B00032202FA03F3DB434B
:1042E000BA691340BB613B685B6803F00302FB697A
:1042F0005B0002FA03F3BA691343BB617B68BA69D6
:104300001A603B685B6803F44033002B00F0E080E8
:104310002F4BD3F8F4302E4A43F00203C2F8F430A6
:104320002B4BD3F8F43003F00203FB60FB68294AFF
:10433000FB699B08023352F82330BB61FB6903F031
:1043400003039B000F2202FA03F3DB43BA69134015
:10435000BB617B68204A934252D07B681F4A9342DC
:1043600031D07B681E4A93422BD07B681D4A934212
:1043700025D07B681C4A93421FD07B681B4A93421E
:1043800019D07B681A4A934213D07B68194A93422A
:104390000DD07B68184A934207D07B68174A934236
:1043A00001D109232DE00A232BE0082329E007236C
:1043B00027E0062325E0052323E0042321E003234F
:1043C0001FE002231DE001231BE000BF8000005816
:1043D000004402580004005800000258000402582B
:1043E00000080258000C025800100258001402582D
:1043F00000180258001C02580020025800240258DD
:104400000023FA6902F0030292009340BA69134351
:10441000BB613849FB699B080233BA6941F8232024
:104420004FF0B0431B68BB613B69DB43BA69134083
:10443000BB613B685B6803F48013002B03D0BA694F
:104440003B691343BB614FF0B042BB6913604FF04F
:10445000B0435B68BB613B69DB43BA691340BB6136
:104460003B685B6803F40013002B03D0BA693B6917
:104470001343BB614FF0B042BB6953607B695B681B
:10448000BB613B69DB43BA691340BB613B685B6856
:1044900003F40033002B03D0BA693B691343BB61BB
:1044A0007B69BA695A607B691B68BB613B69DB4306
:1044B000BA691340BB613B685B6803F48033002B2F
:1044C00003D0BA693B691343BB617B69BA691A605F
:1044D000FB690133FB613B681A68FB6922FA03F34D
:1044E000002B7FF463AE00BF00BF2437BD465DF8EC
:1044F000047B70470004005880B483B000AF78603C
:104500000B467B8013467B707B78002B03D07A8828
:104510007B689A6103E07B881A047B689A6100BF1C
:104520000C37BD465DF8047B704780B485B000AFA2
:1045300078600B467B807B685B69FB607A88FB68F0
:1045400013401A04FB68D9437B880B401A437B68ED
:104550009A6100BF1437BD465DF8047B7047F0B523
:104560008FB00AAF78607B68002B01D1012316E180
:104570007B681B68BB607B6893F8BD34DBB2002BA3
:1045800006D17B68002283F8BC247868FDF7C2FE60
:104590007B68032283F8BD24BB68DB6B03F4807364
:1045A000002B02D17B680022DA607B681B6818460A
:1045B00005F010FC7B681B683B607E686D4606F169
:1045C00010040FCC0FC50FCC0FC594E8030085E88D
:1045D0000300331D0ECB386805F08EFB0346002B1D
:1045E00005D07B68022283F8BD240123D7E07B68D5
:1045F0001B680021184605F0FEFB0023FB734AE010
:10460000FA7B79681346DB0013449B000B443D336F
:1046100001221A70FA7B79681346DB0013449B0071
:104620000B443C33FA7B1A70FA7BFB7B98B27968B7
:104630001346DB0013449B000B44563302461A809A
:10464000FA7B79681346DB0013449B000B4440332C
:1046500000221A70FA7B79681346DB0013449B0032
:104660000B44443300221A60FA7B79681346DB005E
:1046700013449B000B44483300221A60FA7B79688C
:104680001346DB0013449B000B444C3300221A609A
:10469000FB7B0133FB73FA7B7B685B689A42AFD389
:1046A0000023FB7344E0FA7B79681346DB00134474
:1046B0009B000B4403F27D2300221A70FA7B796879
:1046C0001346DB0013449B000B4403F51F73FA7B76
:1046D0001A70FA7B79681346DB0013449B000B4485
:1046E00003F5207300221A70FA7B79681346DB0009
:1046F00013449B000B4403F5217300221A60FA7BDC
:1047000079681346DB0013449B000B4403F52273C6
:1047100000221A60FA7B79681346DB0013449B0081
:104720000B4403F5237300221A60FB7B0133FB73F8
:10473000FA7B7B685B689A42B5D37B681B683B60F9
:104740007E686D4606F110040FCC0FC50FCC0FC567
:1047500094E8030085E80300331D0ECB386805F0AC
:1047600097FB0346002B05D07B68022283F8BD240B
:10477000012314E07B68002283F838207B68012243
:1047800083F8BD247B685B6A012B02D1786800F056
:104790000BF87B681B68184605F055FD002318468A
:1047A0001437BD46F0BD000080B485B000AF78601E
:1047B0007B681B68FB607B680122C3F800257B686F
:1047C000002283F8F424FB689B6943F00062FB68D5
:1047D0009A61FB685A6D054B1343FA6853650023D1
:1047E00018461437BD465DF8047B7047030000107F
:1047F00080B584B000AF7860194BDB6803F0040328
:10480000042B0AD0164BDB6803F007037A689A4240
:1048100001D001231FE000231DE0114BDB6823F0D2
:1048200007020F497B681343CB60FEF7CDF9F860B0
:1048300009E0FEF7C9F90246FB68D31AB3F57A7F9F
:1048400001D9012307E0064B5B6803F40053B3F57D
:10485000005FEED1002318461037BD4680BD00BF73
:104860000048025880B400AF054BDB68044A43F0AF
:104870008073D36000BFBD465DF8047B704700BF06
:104880000048025880B58CB000AF78607B68002B80
:1048900002D1012300F048BC7B681B6803F00103D0
:1048A000002B00F08880994B1B6903F03803FB62F2
:1048B000964B9B6ABB62FB6A102B07D0FB6A182BD6
:1048C00011D1BB6A03F00303022B0CD18F4B1B6881
:1048D00003F40033002B6DD07B685B68002B69D13B
:1048E000012300F021BC7B685B68B3F5803F06D1F3
:1048F000864B1B68854A43F4803313602EE07B6847
:104900005B68002B0CD1814B1B68804A23F48033F9
:1049100013607E4B1B687D4A23F4802313601DE0E7
:104920007B685B68B3F5A02F0CD1784B1B68774A86
:1049300043F480231360754B1B68744A43F480333F
:1049400013600BE0714B1B68704A23F480331360D3
:104950006E4B1B686D4A23F4802313607B685B6891
:10496000002B13D0FEF730F9786208E0FEF72CF93F
:1049700002467B6AD31A642B01D90323D4E3634B29
:104980001B6803F40033002BF0D014E0FEF71CF991
:10499000786208E0FEF718F902467B6AD31A642BA6
:1049A00001D90323C0E3594B1B6803F40033002BE8
:1049B000F0D100E000BF7B681B6803F00203002B0E
:1049C00000F0CA80514B1B6903F038033B624F4B28
:1049D0009B6AFB613B6A002B07D03B6A182B56D1C0
:1049E000FB6903F00303002B51D1484B1B6803F014
:1049F0000403002B05D07B68DB68002B01D1012369
:104A000092E3424B1B6823F019027B68DB683F4945
:104A100013430B60FEF7D8F8786208E0FEF7D4F88D
:104A200002467B6AD31A022B01D903237CE3374B5E
:104A30001B6803F00403002BF0D0FEF7F5F80346E3
:104A400041F20302934217D87B681B69402B08D1BF
:104A50002E4B5B6823F47C332C4A43F400335360C1
:104A60007AE02A4B5B6823F47C327B681B691B036A
:104A7000264913434B606FE0244B5B6823F0FE42F2
:104A80007B681B691B06214913434B6064E07B680C
:104A9000DB68002B47D01D4B1B6823F019027B6895
:104AA000DB681A4913430B60FEF78EF8786208E062
:104AB000FEF78AF802467B6AD31A022B01D9032338
:104AC00032E3124B1B6803F00403002BF0D0FEF717
:104AD000ABF8034641F20302934219D87B681B6985
:104AE000402B08D1094B5B6823F47C33074A43F41D
:104AF0000033536030E0054B5B6823F47C327B6805
:104B00001B691B03014913434B6025E00044025815
:104B10009A4B5B6823F0FE427B681B691B06974932
:104B200013434B6018E0954B1B68944A23F0010334
:104B30001360FEF749F8786208E0FEF745F8024690
:104B40007B6AD31A022B01D90323EDE28B4B1B683E
:104B500003F00403002BF0D17B681B6803F0100303
:104B6000002B00F0A980854B1B6903F03803BB6163
:104B7000824B9B6A7B61BB69082B07D0BB69182BF2
:104B80003AD17B6903F00303012B35D17B4B1B68C2
:104B900003F48073002B05D07B68DB69802B01D088
:104BA0000123C1E2FEF740F8034641F203029342BB
:104BB00017D87B681B6A202B08D1704B5B6823F0E9
:104BC000F8436E4A43F08043536075E06B4B5B687B
:104BD00023F0F8427B681B6A9B06684913434B60CD
:104BE0006AE0664BDB6823F07C527B681B6A1B061D
:104BF00062491343CB605FE07B68DB69002B42D0E6
:104C00005E4B1B685D4A43F080031360FDF7DCFFD9
:104C1000786208E0FDF7D8FF02467B6AD31A022BC0
:104C200001D9032380E2554B1B6803F48073002BEA
:104C3000F0D0FDF7F9FF034641F20302934217D883
:104C40007B681B6A202B08D14C4B5B6823F0F84330
:104C50004A4A43F0804353602EE0484B5B6823F0A0
:104C6000F8427B681B6A9B06444913434B6023E070
:104C7000424BDB6823F07C527B681B6A1B063F4972
:104C80001343CB6018E03D4B1B683C4A23F0800384
:104C90001360FDF799FF786208E0FDF795FF024683
:104CA0007B6AD31A022B01D903233DE2334B1B68E5
:104CB00003F48073002BF0D17B681B6803F00803BA
:104CC000002B36D07B685B69002B19D02B4B5B6FB8
:104CD0002A4A43F001035367FDF776FF786208E044
:104CE000FDF772FF02467B6AD31A022B01D9032318
:104CF0001AE2224B5B6F03F00203002BF0D018E0A6
:104D00001E4B5B6F1D4A23F001035367FDF75CFFE9
:104D1000786208E0FDF758FF02467B6AD31A022B3F
:104D200001D9032300E2154B5B6F03F00203002B54
:104D3000F0D17B681B6803F02003002B39D07B681F
:104D40009B69002B1CD00D4B1B680C4A43F480530D
:104D50001360FDF739FF786208E0FDF735FF024682
:104D60007B6AD31A022B01D90323DDE1034B1B68B5
:104D700003F40053002BF0D01BE000BF00440258A6
:104D80009B4B1B689A4A23F480531360FDF71CFF6A
:104D9000786208E0FDF718FF02467B6AD31A022BFF
:104DA00001D90323C0E1924B1B6803F40053002B8D
:104DB000F0D17B681B6803F00403002B00F08180B6
:104DC0008C4B1B688B4A43F480731360FDF7FCFE29
:104DD000786208E0FDF7F8FE02467B6AD31A642B7E
:104DE00001D90323A0E1834B1B6803F48073002BDC
:104DF000F0D07B689B68012B06D17D4B1B6F7C4AF2
:104E000043F0010313672DE07B689B68002B0CD1F6
:104E1000774B1B6F764A23F001031367744B1B6FAC
:104E2000734A23F0040313671CE07B689B68052B1F
:104E30000CD16F4B1B6F6E4A43F0040313676C4B2E
:104E40001B6F6B4A43F0010313670BE0684B1B6F4A
:104E5000674A23F001031367654B1B6F644A23F015
:104E6000040313677B689B68002B15D0FDF7ACFE2D
:104E700078620AE0FDF7A8FE02467B6AD31A41F287
:104E80008832934201D903234EE1594B1B6F03F043
:104E90000203002BEED014E0FDF796FE78620AE0E4
:104EA000FDF792FE02467B6AD31A41F288329342A2
:104EB00001D9032338E14E4B1B6F03F00203002B93
:104EC000EED17B685B6A002B00F02D81484B1B699B
:104ED00003F03803182B00F0BD807B685B6A022B5F
:104EE00040F09E80424B1B68414A23F08073136060
:104EF000FDF76AFE786208E0FDF766FE02467B6A0F
:104F0000D31A022B01D903230EE1394B1B6803F09E
:104F10000073002BF0D1364B9A6A374B13407A68F6
:104F2000916A7A68D26A12010A43314913438B624B
:104F30007B681B6B013BC3F308027B685B6B013B27
:104F40005B029BB21A437B689B6B013B1B0403F41F
:104F5000FE031A437B68DB6B013B1B0603F0FE4339
:104F6000234913430B63224BDB6A214A23F00103DD
:104F7000D3621F4B5A6B214B13407A68926CD2005C
:104F80001B4913434B631A4BDB6A23F00C027B680B
:104F90001B6C17491343CB62154BDB6A23F00202EB
:104FA0007B685B6C12491343CB62114BDB6A104A7E
:104FB00043F48033D3620E4BDB6A0D4A43F4003373
:104FC000D3620B4BDB6A0A4A43F48023D362084B5B
:104FD000DB6A074A43F00103D362054B1B68044AAE
:104FE00043F080731360FDF7EFFD786211E000BFBE
:104FF00000440258004802580CFCFFFF0700FFFF66
:10500000FDF7E2FD02467B6AD31A022B01D9032386
:105010008AE0474B1B6803F00073002BF0D082E05E
:10502000434B1B68424A23F080731360FDF7CCFDAD
:10503000786208E0FDF7C8FD02467B6AD31A022BAE
:1050400001D9032370E03A4B1B6803F00073002B77
:10505000F0D168E0364B9B6A3B61354B1B6BFB60C4
:105060007B685B6A012B31D03B6903F003027B68EC
:105070009B6A9A422AD13B691B0903F03F027B6875
:10508000DB6A9A4222D1FB68C3F308027B681B6B80
:10509000013B9A421AD1FB685B0A03F07F027B68EE
:1050A0005B6B013B9A4211D1FB681B0C03F07F0242
:1050B0007B689B6B013B9A4208D1FB681B0E03F097
:1050C0007F027B68DB6B013B9A4201D001232BE01E
:1050D000174B5B6BDB08C3F30C033B617B689B6C7A
:1050E0003A699A421FD0124BDB6A114A23F001033E
:1050F000D362FDF769FD786200BFFDF765FD0246EA
:105100007B6A9342F9D00A4B5A6B0A4B13407A6878
:10511000926CD200064913434B63054BDB6A044A89
:1051200043F00103D362002318463037BD4680BDEB
:10513000004402580700FFFF80B586B000AF7860DA
:1051400039607B68002B01D101239CE18A4B1B68ED
:1051500003F00F033A689A4210D9874B1B6823F07B
:105160000F0285493B6813430B60834B1B6803F0B8
:105170000F033A689A4201D0012384E17B681B68DF
:1051800003F00403002B10D07B681A697B4B9B69EA
:1051900003F070039A4208D9784B9B6923F07002A0
:1051A0007B681B69754913438B617B681B6803F03F
:1051B0000803002B10D07B685A69704BDB6903F041
:1051C00070039A4208D96D4BDB6923F070027B684B
:1051D0005B696A491343CB617B681B6803F010036A
:1051E000002B10D07B689A69644BDB6903F4E063A1
:1051F0009A4208D9614BDB6923F4E0627B689B69C2
:105200005E491343CB617B681B6803F02003002BCE
:1052100010D07B68DA69594B1B6A03F070039A421D
:1052200008D9564B1B6A23F070027B68DB6953492F
:1052300013430B627B681B6803F00203002B10D042
:105240007B68DA684D4B9B6903F00F039A4208D9DB
:105250004A4B9B6923F00F027B68DB684749134385
:105260008B617B681B6803F00103002B55D0434B17
:105270009B6923F470627B689B68404913438B6190
:105280007B685B68022B07D13C4B1B6803F400333F
:10529000002B21D10123F6E07B685B68032B07D14B
:1052A000364B1B6803F00073002B15D10123EAE095
:1052B0007B685B68012B07D1304B1B6803F480735C
:1052C000002B09D10123DEE02C4B1B6803F0040303
:1052D000002B01D10123D6E0284B1B6923F00702E4
:1052E0007B685B68254913430B61FDF76DFC7861B2
:1052F0000AE0FDF769FC02467B69D31A41F2883265
:10530000934201D90323BEE01C4B1B6903F0380212
:105310007B685B68DB009A42EBD17B681B6803F01B
:105320000203002B10D07B68DA68144B9B6903F0F2
:105330000F039A4208D2114B9B6923F00F027B683E
:10534000DB680E4913438B610B4B1B6803F00F03A3
:105350003A689A4214D2084B1B6823F00F020649A0
:105360003B6813430B60044B1B6803F00F033A6860
:105370009A4205D0012386E00020005200440258E2
:105380007B681B6803F00403002B10D07B681A694C
:105390003F4B9B6903F070039A4208D23C4B9B69D8
:1053A00023F070027B681B69394913438B617B686A
:1053B0001B6803F00803002B10D07B685A69344B3C
:1053C000DB6903F070039A4208D2314BDB6923F0AA
:1053D00070027B685B692E491343CB617B681B6855
:1053E00003F01003002B10D07B689A69284BDB690F
:1053F00003F4E0639A4208D2254BDB6923F4E062B0
:105400007B689B6922491343CB617B681B6803F06F
:105410002003002B10D07B68DA691D4B1B6A03F058
:1054200070039A4208D21A4B1B6A23F070027B6801
:10543000DB69174913430B6200F034F80246144B42
:105440009B691B0A03F00F031249CB5C03F01F0397
:1054500022FA03F33B610E4B9B6903F00F030D4AE5
:10546000D35C03F01F033A6922FA03F30A4A13607C
:105470000A4A3B6913600A4B1B681846FDF75AFB42
:105480000346FB73FB7B18461837BD4680BD00BF43
:1054900000440258B4AD0008140000241000002499
:1054A0001800002480B489B000AFB34B1B6903F02F
:1054B0003803182B00F2558101A252F823F000BFE7
:1054C0002555000863570008635700086357000814
:1054D00063570008635700086357000863570008C4
:1054E0004B550008635700086357000863570008CE
:1054F00063570008635700086357000863570008A4
:1055000051550008635700086357000863570008A7
:105510006357000863570008635700086357000883
:1055200057550008944B1B6803F02003002B09D04B
:10553000914B1B68DB0803F00303904A22FA03F344
:10554000BB6111E18D4BBB610EE18D4BBB610BE18A
:105550008C4BBB6108E1884B9B6A03F003037B61C2
:10556000854B9B6A1B0903F03F033B61824BDB6A5F
:1055700003F00103FB60804B5B6BDB08C3F30C03A0
:10558000FA6802FB03F307EE903AF8EE677AC7ED8C
:10559000027A3B69002B00F0E1807B69022B00F06E
:1055A00083807B69022B00F2A1807B69002B03D0F2
:1055B0007B69012B56D099E06F4B1B6803F02003E9
:1055C000002B2DD06C4B1B68DB0803F003036B4AE8
:1055D00022FA03F37B607B6807EE903AF8EE676A85
:1055E0003B6907EE903AF8EE677A86EEA77A624B4F
:1055F0001B6BC3F3080307EE903AF8EE676A97ED6A
:10560000026ADFED615AC6EE257A76EEA77AF7EEEA
:10561000006A77EEA67A67EE277AC7ED077A87E009
:105620003B6907EE903AF8EE677ADFED586A86EE4E
:10563000A77A514B1B6BC3F3080307EE903AF8EEC1
:10564000676A97ED026ADFED505AC6EE257A76EE6C
:10565000A77AF7EE006A77EEA67A67EE277AC7EDAB
:10566000077A65E03B6907EE903AF8EE677ADFED7E
:10567000486A86EEA77A404B1B6BC3F3080307EE1C
:10568000903AF8EE676A97ED026ADFED3F5AC6EE90
:10569000257A76EEA77AF7EE006A77EEA67A67EEBD
:1056A000277AC7ED077A43E03B6907EE903AF8EEB8
:1056B000677ADFED386A86EEA77A2F4B1B6BC3F350
:1056C000080307EE903AF8EE676A97ED026ADFED9D
:1056D0002E5AC6EE257A76EEA77AF7EE006A77EEB6
:1056E000A67A67EE277AC7ED077A21E03B6907EED5
:1056F000903AF8EE677ADFED266A86EEA77A1E4BBF
:105700001B6BC3F3080307EE903AF8EE676A97ED58
:10571000026ADFED1D5AC6EE257A76EEA77AF7EE1D
:10572000006A77EEA67A67EE277AC7ED077A00BFA0
:10573000114B1B6B5B0A03F07F0301333B603B683B
:1057400007EE903AB8EE677AD7ED076AC6EE877A29
:10575000FCEEE77A17EE903ABB6105E00023BB61EF
:1057600002E0074BBB6100BFBB6918462437BD464A
:105770005DF8047B704700BF004402580090D003DE
:1057800000093D0000127A00000000460024744C1D
:105790000024744A0024F44A80B582B000AFFFF7B9
:1057A00081FE0246104B9B691B0A03F00F030F4951
:1057B000CB5C03F01F0322FA03F37B600A4B9B6967
:1057C00003F00F03094AD35C03F01F037A6822FA3F
:1057D00003F3074A1360074A7B681360044B1B6896
:1057E00018460837BD4680BD00440258B4AD0008D5
:1057F000140000241000002480B500AFFFF7CCFF98
:105800000246064BDB691B0903F007030449CB5C26
:1058100003F01F0322FA03F3184680BD0044025828
:10582000B4AD000880B500AFFFF7B6FF0246064BE7
:10583000DB691B0A03F007030449CB5C03F01F0379
:1058400022FA03F3184680BD00440258B4AD0008A4
:105850002DE9B04FCAB000AFC7F81401002387F894
:105860002731002387F82631D7F81431D3E90023F4
:1058700002F00064002554EA050349D0D7F814313A
:105880009B6EB3F5401F2FD0B3F5401F28D8B3F55A
:10589000001F1AD0B3F5001F22D8002B03D0B3F598
:1058A000801F07D01CE0B84BDB6AB74A43F40033D3
:1058B000D3621AE0D7F8143108330221184601F0F8
:1058C0008FFC034687F827310FE0D7F814312833CF
:1058D0000221184601F036FD034687F8273104E01F
:1058E000012387F8273100E000BF97F82731002B0C
:1058F0000AD1A54B1B6D23F44011D7F814319B6ED0
:10590000A14A0B43136503E097F8273187F8263146
:10591000D7F81431D3E9002302F480784FF000095E
:1059200058EA090347D0D7F814319B6D042B2AD8C5
:1059300001A252F823F000BF4D5900085B5900083E
:10594000715900088F5900088F5900088E4BDB6A87
:105950008D4A43F40033D3621AE0D7F81431083388
:105960000021184601F03CFC034687F827310FE080
:10597000D7F8143128330021184601F0E3FC034620
:1059800087F8273104E0012387F8273100E000BFC2
:1059900097F82731002B0AD17B4B1B6D23F00701B1
:1059A000D7F814319B6D784A0B43136503E097F8E1
:1059B000273187F82631D7F81431D3E9002302F4D0
:1059C000007A4FF0000B5AEA0B034CD0D7F8143191
:1059D000DB6DB3F5807F30D0B3F5807F29D8C02B45
:1059E0002DD0C02B25D8802B18D0802B21D8002B70
:1059F00002D0402B07D01CE0634BDB6A624A43F4C1
:105A00000033D3621CE0D7F8143108330021184664
:105A100001F0E6FB034687F8273111E0D7F814318F
:105A200028330021184601F08DFC034687F8273102
:105A300006E0012387F8273102E000BF00E000BF45
:105A400097F82731002B0AD14F4B1B6D23F4E071DF
:105A5000D7F81431DB6D4C4A0B43136503E097F81C
:105A6000273187F82631D7F81431D3E9002302F41F
:105A70008063C7F808310023C7F80C31D7E9421218
:105A80000B46134353D0D7F81431D3F8A830B3F5ED
:105A9000000F35D0B3F5000F2ED8B3F5C00F31D0BD
:105AA000B3F5C00F28D8B3F5800F1AD0B3F5800F27
:105AB00022D8002B03D0B3F5001F07D01CE0324BD7
:105AC000DB6A314A43F40033D3621CE0D7F8143167
:105AD00008330021184601F083FB034687F827317D
